:020000040000FA
:10C000003DB8F3960000000000020000B479020081
:10C010000000000000000000000000000000000020
:10C02000FFFFFFFFFFFFFFFFFFFFFFFFFFFFFFFF20
:10C03000FFFFFFFFFFFFFFFFFFFFFFFFFFFFFFFF10
:10C04000FFFFFFFFFFFFFFFFFFFFFFFFFFFFFFFF00
:10C05000FFFFFFFFFFFFFFFFFFFFFFFFFFFFFFFFF0
:10C06000FFFFFFFFFFFFFFFFFFFFFFFFFFFFFFFFE0
:10C07000FFFFFFFFFFFFFFFFFFFFFFFFFFFFFFFFD0
:10C08000FFFFFFFFFFFFFFFFFFFFFFFFFFFFFFFFC0
:10C09000FFFFFFFFFFFFFFFFFFFFFFFFFFFFFFFFB0
:10C0A000FFFFFFFFFFFFFFFFFFFFFFFFFFFFFFFFA0
:10C0B000FFFFFFFFFFFFFFFFFFFFFFFFFFFFFFFF90
:10C0C000FFFFFFFFFFFFFFFFFFFFFFFFFFFFFFFF80
:10C0D000FFFFFFFFFFFFFFFFFFFFFFFFFFFFFFFF70
:10C0E000FFFFFFFFFFFFFFFFFFFFFFFFFFFFFFFF60
:10C0F000FFFFFFFFFFFFFFFFFFFFFFFFFFFFFFFF50
:10C10000FFFFFFFFFFFFFFFFFFFFFFFFFFFFFFFF3F
:10C11000FFFFFFFFFFFFFFFFFFFFFFFFFFFFFFFF2F
:10C12000FFFFFFFFFFFFFFFFFFFFFFFFFFFFFFFF1F
:10C13000FFFFFFFFFFFFFFFFFFFFFFFFFFFFFFFF0F
:10C14000FFFFFFFFFFFFFFFFFFFFFFFFFFFFFFFFFF
:10C15000FFFFFFFFFFFFFFFFFFFFFFFFFFFFFFFFEF
:10C16000FFFFFFFFFFFFFFFFFFFFFFFFFFFFFFFFDF
:10C17000FFFFFFFFFFFFFFFFFFFFFFFFFFFFFFFFCF
:10C18000FFFFFFFFFFFFFFFFFFFFFFFFFFFFFFFFBF
:10C19000FFFFFFFFFFFFFFFFFFFFFFFFFFFFFFFFAF
:10C1A000FFFFFFFFFFFFFFFFFFFFFFFFFFFFFFFF9F
:10C1B000FFFFFFFFFFFFFFFFFFFFFFFFFFFFFFFF8F
:10C1C000FFFFFFFFFFFFFFFFFFFFFFFFFFFFFFFF7F
:10C1D000FFFFFFFFFFFFFFFFFFFFFFFFFFFFFFFF6F
:10C1E000FFFFFFFFFFFFFFFFFFFFFFFFFFFFFFFF5F
:10C1F000FFFFFFFFFFFFFFFFFFFFFFFFFFFFFFFF4F
:10C200007025002071E50000D155010045E50000D2
:10C2100045E5000045E5000045E5000045E5000076
:10C2200000000000000000000000000041DF0000EE
:10C2300045E5000000000000E9DE000041F60000D6
:10C24000C1DF0000C1DF0000C1DF0000C1DF00006E
:10C25000C1DF0000C1DF0000C1DF0000C1DF00005E
:10C26000C1DF0000C1DF0000C1DF0000C1DF00004E
:10C27000C1DF0000C1DF0000C1DF0000C1DF00003E
:10C28000C1DF0000C1DF0000C1DF0000C1DF00002E
:10C29000C1DF0000C1DF0000C1DF0000C1DF00001E
:10C2A000C1DF0000C1DF0000C1DF0000C1DF00000E
:10C2B000C1DF0000C1DF0000C1DF0000C1DF0000FE
:10C2C000C1DF0000C1DF0000C1DF0000C1DF0000EE
:10C2D000C1DF0000C1DF0000C1DF0000C1DF0000DE
:10C2E000C1DF0000C1DF0000C1DF0000C1DF0000CE
:10C2F000C1DF0000C1DF0000C1DF0000C1DF0000BE
:10C30000C1DF0000C1DF0000C1DF0000C1DF0000AD
:10C31000C1DF0000C1DF0000C1DF0000C1DF00009D
:10C32000C1DF0000C1DF0000C1DF0000C1DF00008D
:10C33000C1DF0000C1DF0000C1DF0000C1DF00007D
:10C34000C1DF00000000000000000000000000004D
:10C3500000000000000000000000000000000000DD
:10C3600000000000000000000000000000000000CD
:10C3700000000000000000000000000000000000BD
:10C3800000000000000000000000000000000000AD
:10C39000000000000000000000000000000000009D
:10C3A000000000000000000000000000000000008D
:10C3B000000000000000000000000000000000007D
:10C3C000000000000000000000000000000000006D
:10C3D000000000000000000000000000000000005D
:10C3E000000000000000000000000000000000004D
:10C3F000000000000000000000000000000000003D
:10C40000DEE61E284CBBCE8F025B00003C00000025
:10C4100000BE00000100000000C2000000C20000D9
:10C42000FFFF02910000000000000000000000007B
:10C4300000000000000000000000000053B94AB9ED
:10C44000002908BF00281CBF4FF0FF314FF0FF301C
:10C4500000F070B9ADF1080C6DE904CE00F006F8FB
:10C46000DDF804E0DDE9022304B070472DE9F04770
:10C47000089E0D4604468A46002B7FD18A42174605
:10C4800041D9B2FA82F24AB1C2F1200105FA02F3AF
:10C490009740944020FA01F141EA030A4FEA174815
:10C4A0004FEA144C1FFA87F9BAFBF8FE08FB1EA3EB
:10C4B0000EFB09F14CEA0343994206D9FB1802D25C
:10C4C000994200F224810EF1FF3E591AA3B2B1FB4A
:10C4D000F8F008FB101100FB09F943EA0144A145FB
:10C4E00005D93C1902D2A14500F20E810138A4EB16
:10C4F000090440EA0E4000211EB1D4400023C6E9E1
:10C500000043BDE8F08702B9FFDEB2FA82F2002AEA
:10C510004FD1CB1B4FEA174E1FFA87F80121250C8C
:10C52000B3FBFEFC0EFB1C302B4608FB0CF945EA66
:10C530000045A9450AD97D192CBF01230023A9452F
:10C5400002D9002B00F0D9800CF1FF3CA5EB0905C6
:10C55000A3B2B5FBFEF00EFB105508FB00F843EA52
:10C560000544A04505D93C1902D2A04500F2C98076
:10C570000138A4EB080440EA0C40BDE78B4208D91F
:10C58000002E00F0B1800021C6E900050846BDE894
:10C59000F087B3FA83F1002946D1AB42C0F0A780FF
:10C5A000824240F2A4800846002EAAD0C6E9004A82
:10C5B000A7E7C2F12000974001FA02F34FEA174EB5
:10C5C000C14024FA00F51FFA87F894401D43B1FBDF
:10C5D000FEF02B0C0EFB101100FB08FC43EA01439C
:10C5E0009C4509D9FB182CBF012100219C4502D98B
:10C5F000002900F095800138A3EB0C03ADB2B3FB2A
:10C60000FEF10EFB113301FB08FC45EA0345AC4586
:10C6100005D97D1902D2AC4500F289800139A5EB1C
:10C620000C0341EA00417AE7C1F120048B4002FA91
:10C6300001F705FA01FCE24020FA04F8E54000FAAF
:10C6400001FE134348EA0C024FEA13484FEA124C2A
:10C650001FFA83F9B5FBF8FA08FB1A550AFB09F033
:10C660004CEA054C60450AD913EB0C0C2CBF012594
:10C670000025604501D9002D55D00AF1FF3AACEBF9
:10C68000000C92B2BCFBF8F008FB10CC00FB09F9DF
:10C6900042EA0C4CE14505D913EB0C0C01D2E14503
:10C6A0003BD8013840EA0A40ACEB090CA0FB0789F3
:10C6B000CC4545464A4602D306D1C64504D2013888
:10C6C000B8EB070569EB03022EB3BEEB05036CEB79
:10C6D000020C23FA01F20CFA04F42CFA01F3002103
:10C6E0001443C6E900430CE73146304609E7841A93
:10C6F00065EB030301209A4656E7ACF1020C3D447A
:10C7000024E702383C4434E702383C44EFE6AEF11B
:10C71000020E3B44D9E63146F3E602389C44C1E7B9
:10C7200002383B4468E7AAF1020A9C44A7E70239B1
:10C730003D4474E7704700BF2DE9E04F2746A0460F
:10C74000A146A246A346A446A2B02DEC000A84F35B
:10C75000008825462646A4473DEC000A22B0BDE8E5
:10C76000E08F000038B54468054604F00304032C4C
:10C77000816002D02CB1002000E0006800236B60D3
:10C7800038BD45220449054808F0C8FD4521024846
:10C7900008F090FEEFE700BFBB620100DE6201001F
:10C7A0000B6801330B60014B1B6818470000002029
:10C7B000014B1860704700BF0000002007B50B4612
:10C7C000002102460191034801A900F06DFA03B06F
:10C7D0005DF804FBA1C700002DE9F74FB0F81CA0DD
:10C7E00004461AF0080F93461CD001290CBF4AF0EA
:10C7F000100A4AF0200AA0F81CA004F1140004F06A
:10C800005FFB40B9BA49BB48AC2208F087FDAC21B8
:10C81000B74808F04FFE8BF31188BFF36F8F03B05A
:10C82000BDE8F08FB44FDFF8CC820AF0070A022986
:10C8300006D1204608F07FFD0028DED0012865D112
:10C84000D4F81890A38BB9F1000F19DA00262568E7
:10C8500023F00703C4E9006643F00103A383A38B1D
:10C8600003F007025245009203D0A268002A40F06C
:10C87000F18015B9002E00F02B814FF0000AEBE09B
:10C8800003F00702511F012922D8002123F00703DA
:10C89000062A25689BB2C4E900110CD18D422A46B4
:10C8A00038BF0A462AB1E18B12680131E183002AC0
:10C8B000F8D143F002032046A38308F03CFD06466E
:10C8C0000028CCD0A38B43F02003A3830026C6E727
:10C8D000042A0DD123F007039AB22046A28308F060
:10C8E0002AFD054680B142F020020025A283EDE733
:10C8F00040F21B123946404608F010FD40F21B1171
:10C90000384608F0D7FD00252E46A8E7032831D188
:10C91000BAF1000F0AD0394640464FF4AB7208F026
:10C92000FDFC4FF4AB71384608F0C4FD236853B9E1
:10C930003946404640F2571208F0F0FC40F25711D9
:10C94000384608F0B7FD23691E6856B93946404697
:10C950004FF4AD7208F0E2FC4FF4AD71384608F0C8
:10C96000A9FDA38B23F0070343F006030025A3834F
:10C97000A94674E704282ED1BAF1020F0AD039462D
:10C98000404640F25D1208F0C9FC40F25D113846A5
:10C9900008F090FDE38B53B1394640464FF4AF7237
:10C9A00008F0BCFC4FF4AF71384608F083FD2369F2
:10C9B0005E6856B93946404640F2611208F0AEFC56
:10C9C00040F26111384608F075FDA38B23F0070390
:10C9D00043F00403CAE705282ED1BAF1010F0AD0AB
:10C9E000394640464FF4B27208F098FC4FF4B271E9
:10C9F000384608F05FFD236853B93946404640F297
:10CA0000651208F08BFC40F26511384608F052FDC3
:10CA100023699E6856B9394640464FF4B47208F00F
:10CA20007DFC4FF4B471384608F044FDA38B23F02D
:10CA3000070343F0050399E7002540F26B123946DE
:10CA4000404608F06BFC40F26B11384608F032FDAE
:10CA50002E468DE74FF0010A43F00803A38304F14B
:10CA600014031846019304F02BFA40B940462049BC
:10CA7000AC2208F053FCAC211D4808F01BFD8BF3E1
:10CA80001188BFF36F8FBAF1000F39D1002D4CD14F
:10CA900016B120461949B0474FF02003EFF3118B30
:10CAA00083F31288BFF36F8F019804F0FBF940B94C
:10CAB00040460F49812208F031FC81210C4808F0E2
:10CAC000F9FC019804F00AFAA38B23F00803A3836E
:10CAD000A38BDA0631D5012123F01003A383B4F828
:10CAE0001CA00AF0070A00297FF4A1AE85E600BF6A
:10CAF00018630100DE620100F66201004DCB000008
:10CB0000A1680029C2D00B68002B38BF00239A46C9
:10CB100020464B46D1F804B0009AD847BAF1000F2E
:10CB2000B4D05146DAF80030EEE729464B462046AD
:10CB3000009A2D6808F01BFCA8E713F020011EBF27
:10CB400023F020030221A383C9E700BFF8B5044600
:10CB50000D4600F114064FF02003EFF3118783F325
:10CB60001288BFF36F8F304604F09CF940B90A4930
:10CB70000A48812208F0D2FB8121074808F09AFC7C
:10CB8000304604F0ABF93A462046A5610121BDE8E4
:10CB9000F840FFF721BE00BF18630100DE6201000C
:10CBA0002DE9F04704460F4608F0F7FB051E54DB5D
:10CBB00004F114094FF02003EFF3118A83F3128874
:10CBC000BFF36F8F484604F06DF940B933493448DC
:10CBD000812208F0A3FB8121304808F06BFC484615
:10CBE00004F07CF94FF6FF71E38BA28B8B4202F0CD
:10CBF00007064AD0022E1FD135464FF001080133F7
:10CC0000E383484604F05CF940B924492448AC2247
:10CC100008F084FBAC21214808F04CFC8AF3118811
:10CC2000BFF36F8FB8F1000F17D00023324639469B
:10CC3000204608F09CFB10E0930701D0062E0FD190
:10CC400000233B606368EBB9C4E900773546F6B969
:10CC5000524602212046FFF7BFFD2846BDE8F08777
:10CC6000052E17D0012E0AD00E490D4840F2C912E8
:10CC700008F054FB40F2C9110A4808F01BFC6FF0A1
:10CC8000040504E01F606760E0E76FF00A054FF0FD
:10CC90000008B6E76FF08505F9E700BF18630100EB
:10CCA000DE620100F66201002DE9F04F8B469246EC
:10CCB0001C46002591B002909AF8000008B9284659
:10CCC0005EE325280AF1010707D05946029B9847E1
:10CCD0000028C0F25583013510E2182200210AA86D
:10CCE00008F0DDFC9AF80130252B78D0002294461C
:10CCF000164696461046394617F8013B2B2B00F096
:10CD00009D8000F29480202B00F09B80232B00F06C
:10CD10009A8028B19DF8300040F004008DF8300072
:10CD2000BEF1000F05D09DF8300040F008008DF8EE
:10CD300030002EB19DF8300040F010008DF830002A
:10CD4000BCF1000F05D09DF8300040F020008DF8B8
:10CD500030002AB19DF8302042F040028DF830209A
:10CD60009DF8302002F04400442803D16FF386126E
:10CD70008DF830209DF830202A2B42F080028DF86B
:10CD800030207BD19DF831204B1C42F001028DF800
:10CD900031201A782E2A0CBF012100219DF8312064
:10CDA00061F341028DF8312074D15A782A2A6AD071
:10CDB00000210A260133184610F8012BA2F1300792
:10CDC000092F40F28E809DF830200E91C2F3400072
:10CDD00040EAD17161F341028DF830205AE00AF146
:10CDE00002078DF833309DF83130D90740F1498181
:10CDF00054F8049BB9F1000F07DA9DF83020C9F10F
:10CE0000000942F004028DF830205A0740F14281B7
:10CE100054F8048BB8F1000F80F241819DF8313055
:10CE20006FF341038DF831304FF0FF3837E12D2B90
:10CE30000CD0302B7FF46DAF01225CE74FF0010E78
:10CE400059E7012657E74FF0010C54E7012052E75C
:10CE500033460CFB0202303A1E4616F8010BA0F1D5
:10CE60003007092FF4D9994293D09DF830100D92D4
:10CE7000D20F62F341018DF830108AE70B46002291
:10CE80004FF00A0CE8E79DF83120023342F004022B
:10CE90008DF831201F4617F8012B6C2A41D025D878
:10CEA000682A2BD06A2A46D04C2A4CD01F4617F845
:10CEB000012B9DF83130782A8DF8332000F2D9808B
:10CEC000572A4DD8412A03D0453A022A00F2D18090
:10CED00004229DF8323062F302038DF832300123D0
:10CEE0009EE006FB01210346303964E7742A26D010
:10CEF0007A2ADBD106229DF831300DE05A78682A73
:10CF00009DF8312006D1012161F3C6028DF8312050
:10CF10009F1CCCE71346022262F3C6038DF8313022
:10CF2000C5E75A786C2A9DF8312001D10421EBE73E
:10CF300013460322F0E705229DF83130ECE7072283
:10CF40009DF83130E8E7BDF8303023F4F04323F0AA
:10CF5000020343F4804343F00203ADF83030A6E708
:10CF6000A2F15801202900F2848001A050F821F09C
:10CF700035D0000073D0000073D0000073D00000E3
:10CF800073D0000073D0000073D0000073D0000095
:10CF900073D00000D1CE000073D0000035D0000067
:10CFA000F5CF0000D1CE0000D1CE0000D1CE0000E0
:10CFB00073D00000F5CF000073D0000073D00000E4
:10CFC00073D0000073D000003DD0000035D00000C9
:10CFD00059D0000073D0000073D0000059D0000079
:10CFE00073D0000035D0000073D0000073D0000073
:10CFF00035D0000001209DF8321003F0780360F373
:10D000000201402B8DF8321002BF9DF8301041F024
:10D0100001018DF83010632A31D1003B18BF012384
:10D020009DF83020C2F340010B4363F341028DF8B9
:10D030003020D8E602209DF83210DEE703219DF86B
:10D04000322003F07803A3F1400061F3020243426F
:10D050008DF832204341E3E703219DF8322013F09D
:10D06000780F61F3020214BF012300238DF83220F0
:10D07000D6E79DF8303043F001038DF830300023BF
:10D08000CEE79DF93020002AACBF4FF0FF39DDF824
:10D090003490BAE69B077FF5C7AEDDF838800023F1
:10D0A000CDE90D339DF832309DF8312003F00703B0
:10D0B000012BC2F3C30236D1D31E042B20D8DFE8E4
:10D0C00003F00307071F1F0054F8040BC11704E007
:10D0D000073424F00704F4E80201CDE90A019DF8C1
:10D0E000303013F0030654D03B465246594602985E
:10D0F00008F0CAF90028C0F243810544BA46DBE5CE
:10D1000054F8040B012A4FEAE071CDE90A0105D178
:10D110009DF828300A9300230B93E0E7022ADED122
:10D12000BDF92800D2E7022B23D1D31E042B13D83C
:10D13000DFE803F0030A0A12120000212068231D11
:10D140000A900B911C46CAE7073424F00703F3E862
:10D150000201CDE90A01F5E754F8043B012A0A93DC
:10D160004FF000030B93D3D0022AB8D1BDF828307A
:10D17000D0E7042B07D1073424F00704F4E80201B8
:10D18000CDE90A01ABE7032B04BF54F8043B0A9333
:10D19000A5E79DF833007828B0D8622822D8252842
:10D1A0003FF493AD5828A9D1DDE90A010DF126031A
:10D1B00000930CAA04AB08F01CF98246B8F1000FEA
:10D1C0000DF126000CDB9DF83020A0EB0A036FF375
:10D1D000861298458DF8302002D9A8EB03030D93F1
:10D1E00080463DE06338152888D801A151F820F029
:10D1F00071D20000D5D20000FDD00000FDD00000AB
:10D20000FDD00000FDD00000D5D20000FDD0000010
:10D21000FDD00000FDD00000FDD0000033D30000A1
:10D2200001D3000005D30000FDD00000FDD00000B8
:10D2300049D20000FDD0000001D30000FDD0000065
:10D24000FDD0000001D30000B8F1000FDDF828A0E8
:10D250000ADB4146504608F0DBF900260AEB0008DD
:10D26000BAF1000F0CD149E7504608F0CAF9F4E7CB
:10D2700000260A9B0DF111088DF810300DF1100AEF
:10D28000A8EB0A0306B101339DF83220D0066BD516
:10D29000023352060D9948BF0E9A0B4448BF9B18A3
:10D2A000B9F1000F79DD9DF83020A9EB0309C2F335
:10D2B00080030393530770D4500664D546B1594692
:10D2C0003046029B984700285ADB039B01351E46D7
:10D2D000302359E01E0711D413F0100618BF202682
:10D2E000DDE90A23002A73F10001BFF65DAF524267
:10D2F00063EB43032D26CDE90A2355E72B26EFE701
:10D30000002651E70A9848B30DF126030093002147
:10D3100004AB0CAA08F06DF8BDF83230824603F079
:10D32000EF0343F4F04343F010030026ADF832302E
:10D3300044E70A9B072A3FF6E1AEDFE802F00D045E
:10D34000060D08080D0D1D70D8E61D80D6E628468E
:10D35000E917C3E90001D1E61D60CFE6DFF8C4801C
:10D360000646A8F1050A8BE7110748BF013390E78D
:10D37000184603935946029B98470028039B04DAFA
:10D3800011B0BDE8F08F20234D444A46002AA5EB9A
:10D39000090109F1FF39EBDC0D4636B1594630463B
:10D3A000029B98470028EBDB01359DF83230D90607
:10D3B00001D41A0706D559463020029B9847002809
:10D3C000DEDB01359DF83230DB0607D559469DF886
:10D3D0003300029B98470028D2DB01350D9E2E4476
:10D3E000731B002B16DC434652465946029808F040
:10D3F0004BF80028C4DB0544A944A9EB0503002B26
:10D400007FF77CAE59462020029B98470028B7DB67
:10D410000135F2E759463020029B98470028AFDBE0
:10D420000135DDE743630100044608B54FF02002F3
:10D43000EFF3118382F31288BFF36F8F08F0BBFA0A
:10D44000204601F0C5F8034807F068FF00F088FCAB
:10D45000FCE700BF446301004FF02002EFF31183AB
:10D4600082F31288BFF36F8F0121044AC2F840157E
:10D4700083F31188BFF36F8F002070470090035033
:10D4800020B1034B800143F001031847704700BFF0
:10D49000D05E010084B004AB03E907009DF80430BE
:10D4A000062B07D10122044BC3F80025BFF34F8F91
:10D4B00020BFFDE704B0704700400050F8B50546B6
:10D4C0004FF02003EFF3118683F31288BFF36F8FC1
:10D4D000194803F0E7FC40B918491948812207F0C0
:10D4E0001DFF8121154807F0E5FF134803F0F6FC06
:10D4F000144B1C68002C38BF00245CB1124FD4E9D7
:10D500000132002D08BF13460BB1387898472468C4
:10D51000002CF4D1084803F0D3FC40B9074908486F
:10D52000AC2207F0FBFEAC21044807F0C3FF86F3F2
:10D530001188BFF36F8FF8BD9002002018630100BF
:10D54000DE620100940200209C0200201FB50F4BF8
:10D550001A68BAB901221A600D4A01AB07CA83E8FA
:10D5600007000C4A4AB193E8070007F0ABFF002020
:10D5700005B05DF804EBFFF7A1BF82F31188BFF39C
:10D580006F8FF4E705B05DF804FB00BF04000020D6
:10D590009C020020C5540100F0B589B06E46214CB4
:10D5A00001460546304607F0A5FF96E8070084E8E7
:10D5B0000700207898B300201B4B18606B1C19D013
:10D5C000914208D219491A48CA2207F0A7FECA2177
:10D5D000164807F06FFF4FF400460021A768154872
:10D5E0000023E6FB0701144AFEF728FF0121281A51
:10D5F00004F0A8FF03F056FF0120FFF75FFF94E857
:10D60000070005AB83E807000C4A1AB193E807004E
:10D61000FFF740FFFFF79AFF04F07AFB207809B08C
:10D62000F0BD00BF9C0200200400002071630100D7
:10D63000DE6201003F420F0040420F0095D400001F
:10D64000034610B588B08DF807300DF1070302933B
:10D650000123094ACDE9051310680393002207232B
:10D660008DF810208DF81C30836802225C6802A9B6
:10D670004623A04708B010BDA802002070B586B0B0
:10D680000E460DF1070105461446FFF7D9FFC0B954
:10D690000D4B9DF80720186802AB0393022322EA82
:10D6A000060222438DF807208DF808508DF80920D6
:10D6B00004938DF81430836801225C6803A9462323
:10D6C000A04706B070BD00BFA802002008B503F057
:10D6D000E1F8044B002818600CBF6FF01200002026
:10D6E00008BD00BFA802002000280DDB012243096D
:10D6F00000F01F0002FA00F0044A203342F8230031
:10D70000BFF34F8FBFF36F8F704700BF00E100E0A2
:10D71000F7B500281C4614BF4FF400534FF40043E4
:10D720008A420BD294222749274807F0F7FD94211B
:10D73000244803B0BDE8F04007F0BCBE40D00D4621
:10D74000224E002839D005F5E0770135AA4246F887
:10D750002740F6D802FB03F0013A4B4300901C48E7
:10D7600007F0DCFD1B4B14F0100F1B491B4808BFD2
:10D77000194607F0D3FD14F0040F14BF72212D21B8
:10D78000174807F0CBFD14F0020F14BF77212D21AD
:10D79000134807F0C3FD14F0010F0CBF2D217821B1
:10D7A0000F4807F0BBFD6C210D4807F0B7FD0D4891
:10D7B00003B0BDE8F04007F0B1BD05F5C077C4E7A0
:10D7C00003B0F0BDB1630100DE6201000030005023
:10D7D000D2630100A56301009C6301008365010021
:10D7E000EC6301006F6F010030B54FF4C13485B0B8
:10D7F0004FF4C1312548264D07F090FD216825489A
:10D8000007F08CFD2968244807F088FD10220021CC
:10D81000684607F044FF236868460093029400F0CE
:10D8200031FF012000F060FF002000F049FF0020E0
:10D8300000F06EFF0121002000F088FF00F07CFF67
:10D8400016482C6807F06AFD0820FFF74DFF144AC0
:10D8500024F00104D2F82038002B07DA03F0030388
:10D86000023B012B9CBF0F4BC2F82038012108203E
:10D8700007F07FFEBFF34F8FBFF36F8F6408640024
:10D880002046214622462346FEF756FFEF6301005D
:10D8900004820100066401001B6401003964010078
:10D8A00000300050000100802DE9F843604807F087
:10D8B00035FD002140F2171308460322FFF728FF29
:10D8C0005C4D40F20713202203210020FFF720FFC8
:10D8D000594807F023FDC5F30E04584BC4F5004426
:10D8E0009C4208D256495748822207F017FD8221F0
:10D8F000534807F0DFFDB4FA84F4534EC4F11B041F
:10D90000D6F80025E4B2D205C5F3C4350AD54F498F
:10D910004C484FF4BD7207F001FD4FF4BD714B4808
:10D9200007F0C8FDD6F80435DB050AD54749454858
:10D9300040F27B1207F0F2FC40F27B11434807F003
:10D94000B9FD414B4248C3F80055C3F80445D3F82C
:10D950000015D3F80425520107F0E0FC364807F023
:10D96000DDFC00F08BF8014610B13A4807F0D6FC18
:10D970000024394807F0D2FC40F217130822002196
:10D980000120FFF7C5FE304D40F207132022082189
:10D990000120FFF7BDFE284807F0C0FCC5F8804411
:10D9A0002E4807F0BBFC2E4EC5F8C0442D4F2E4D1F
:10D9B000DFF8C48095F805902146B9F1000F14BF37
:10D9C00033463B4640462A6807F0A8FCB9F1000FF1
:10D9D0000CD12648013407F0A1FC202C05F10805E4
:10D9E000E8D11548BDE8F84307F098BC95F80490D5
:10D9F00095F90400FFF778FE4FEA890303F1A0438D
:10DA000003F54053B9F1310FD3F8002806D0002AAE
:10DA100007DA02F00302023A012A02D8144AC3F8D4
:10DA200000280121484607F0A4FD1248D2E700BFB4
:10DA30006F640100E07F01006F6F010020000000B3
:10DA4000B1630100DE620100003000509364010008
:10DA5000C56401000B6501003B6501005D650100C7
:10DA600064640100A9630100D85E010086650100BD
:10DA7000000100808D6501007965010000220248E7
:10DA8000114604F0F3BE00BFAC02002070B50C4696
:10DA90001546064650B96FF01500BDE87040714656
:10DAA00072467346F4468EF3008C7447002AF2D017
:10DAB00007F0A2FD0128EED0B4F5404F16D32B1984
:10DAC000B3F5424F05D90B4A944209D92D329342FE
:10DAD00009D82A462146304607F0D6FD0020DCE76B
:10DAE000054A944202D9054A9342F2D94FF0FF30D9
:10DAF000D3E700BFFF01FF002F01FF003801FF0047
:10DB000070B506460D46144607F076FD01280DD087
:10DB1000204607F071FD012808D023462A463146E9
:10DB2000084804F0D7FE2368AB4201D06FF015001F
:10DB3000BDE87040714672467346F4468EF3008C21
:10DB4000744700BFAC0200202DE9F04F81460D461E
:10DB500085B081B307F050FD01282CD1284607F08D
:10DB60004BFD012827D04FF00008DFF85CB0DFF84C
:10DB70005CA001AF5BF8046B9AE807004E4487E8AD
:10DB800007000C223946304607F057FD044600B91D
:10DB9000A6B908F10108B8F1050FEBD16FF00D043B
:10DBA000204605B0BDE8F04F714672467346F44614
:10DBB0008EF3008C74476FF01504F1E73C22314678
:10DBC000284607F061FDEBE7D85F0100A05E010089
:10DBD000014804F043BE00BFEC5F010008B5B0B1DE
:10DBE0004368042B0DD100220368D3E8EF1F0129FD
:10DBF00003D1C3E8E02F0028F7D1074808BF10463B
:10DC000008BD3BB1006803F071FA0020F8E76FF43B
:10DC1000E040F5E70148F3E7E98FFFFFEA8FFFFFF8
:10DC200010B5044618B90D4B0D485B6898476168FC
:10DC300008290DD031F004030AD011F0020108D0F8
:10DC40002146084803F008F800232360002363609E
:10DC500010BD1422206807F022FDF7E78C00002099
:10DC6000C26601006804002010B5044618B9164BBE
:10DC700016485B6898476368042B23D0082B21D093
:10DC8000CBB92368BBB94FF0FF324FF0FF332146C9
:10DC90000F4802F087FF08B923681BB90A4B0D48EB
:10DCA0005B68984714220021206807F0F8FC63683D
:10DCB00043F002036360206807F0FEFE636843F0F0
:10DCC0000103636010BD00BF8C000020C26601002C
:10DCD00068040020E866010008B5E8B14368042B39
:10DCE0000CD101220368D3E8EF1F002903D1C3E858
:10DCF000E02F0028F7D10BD1002008BD53B10068F8
:10DD00004FF0FF324FF0FF3303F018F90028F3D043
:10DD10000348F2E70348F0E76FF4E040EDE700BFA7
:10DD2000E98FFFFFEA8FFFFF08B506494023142261
:10DD3000054807F096FEBDE808400449044804F091
:10DD400041BE00BF88040020680400200460010078
:10DD5000F45F0100014910220A60704710ED00E0F5
:10DD600072B6404080F31188BFF36F8FBFF34F8FBF
:10DD700030BF62B6BFF36F8F704700BF72B64940C5
:10DD800081F3118820BF80F3118862B6704700BF0D
:10DD900037B505460C46C9B18B6810480093D1E9E8
:10DDA0000023452107F099FB636945210093D4E9DD
:10DDB00003230B4807F091FB4521E269094807F06E
:10DDC0008CFB4521A269084807F087FB21462846BD
:10DDD00003B0BDE8304002F089BD00BF1567010007
:10DDE000496701007D6701009167010043B2002B84
:10DDF00008DB012200F01F0002FA00F0024A5B0972
:10DE000042F82300704700BF00E100E0054B4209E3
:10DE100053F82220012300F01F0003FA00F0104005
:10DE2000704700BF00E100E038B54C1C072C0546E8
:10DE300008D90D490D48582207F070FA58210A48B0
:10DE400007F038FB6BB2002BACBF03F16043084B0B
:10DE50004FEA4414E4B2ABBF03F5614305F00F058C
:10DE600083F800435C5538BDC4670100DE620100E1
:10DE700014ED00E030BFFFF7FDBF00BF0B4A08B54F
:10DE80000B4B22F07F029A60BFF34F8FBFF36F8F6F
:10DE9000D3F8882022F47002C3F8882002F0C6FD6F
:10DEA00004F0BAF900F058FB02F0CAFD00C200000D
:10DEB00000ED00E0094A0A499368096858679967C4
:10DEC00008494B6843F080534B60002383F311886B
:10DED000BFF36F8F9368986F704700BF580A002098
:10DEE0001C61010000ED00E013498A684FF030002A
:10DEF0001044EFF3098C80E8F01F202080F3128893
:10DF0000BFF36F8F0D4F4FF00066CA698A603E60A5
:10DF1000506F0023536780F3118802F1300090E8BE
:10DF2000F01F8CF3098802F1000004B507F057FBDD
:10DF3000BDE8044070470000580A002004ED00E0EE
:10DF40001EF0040F0CBFEFF30880EFF30980816926
:10DF500011F8021C0229FFD001B507F002FB01BD38
:10DF600042F8203C009B0B4942F81C3C019B21F0ED
:10DF7000010142F8183C029B42F8081C42F8143C8C
:10DF80004FF0807342F8043C0023203A0265436757
:10DF9000704700BFDF530100084B9860436E83F366
:10DFA0000B88104681F30988002163B681F311883C
:10DFB000BFF36F8F0022002307F011FA580A0020E8
:10DFC00001B572B60B4A906900281EBF002191610D
:10DFD00007F06BFD62B6EFF30580A0F110004FEA89
:10DFE000C0000549014409C99847BDE801400349FB
:10DFF00008470000580A00201C5C010001E00000F6
:10E00000044B9968D869884203D003494FF0805285
:10E010000A607047580A002004ED00E070B52B4CF0
:10E0200006460D462A48452107F057FAA26AD0064F
:10E0300003D54521274807F050FAA36A190703D5ED
:10E040004521254807F049FA204CA36A9A0710D5C4
:10E050004521224807F041FA626BA36A1B0608D5E6
:10E0600045211F4807F039FA1EB1A36A23F0800347
:10E07000A362164CA26AD60703D54521194807F0BA
:10E080002CFAA36A980603D54521174807F025FA0C
:10E090000E4B9A6AD10602D49A6A92070DD59B6AF2
:10E0A000DB060AD51149124840F24F1207F036F943
:10E0B00040F24F110D4807F0FDF90020034A936A22
:10E0C00043F0FF039362287070BD00BF00ED00E0D5
:10E0D000FA670100156801004D68010065680100DC
:10E0E000826801009D680100C1680100F5680100B7
:10E0F000DE62010070B5234C06460D4622484521DC
:10E1000007F0EBF9A26AD10403D545211F4807F0B7
:10E11000E4F9A36A1A0503D545211D4807F0DDF986
:10E12000184CA36A9B0510D51A48452107F0D5F96C
:10E13000A26BA36A180408D54521174807F0CDF94A
:10E140001EB1A36A23F40043A3620E4CA36A5905CF
:10E1500003D54521114807F0C0F9A36ADA050BD5AC
:10E1600045210F4807F0B9F90020064A936A43F4A5
:10E170007F439362287070BDA36A9B04F4D5452148
:10E180000848EFE700ED00E02F6901004A6901004F
:10E190004D680100606901007E6901009869010015
:10E1A000B8690100C168010038B5214C45212148FA
:10E1B00007F093F9A26A950103D545211E4807F09F
:10E1C0008CF9A36ADC0103D545211C4807F085F9C9
:10E1D000174DAC6A14F4801404D04521184807F098
:10E1E0007CF90224AB6A180303D54521154807F0D2
:10E1F00074F90F4DAA6A510303D54521124807F05F
:10E200006CF9AB6A9A0303D54521104807F065F90C
:10E21000074DAB6ADB0303D545210D4807F05DF9D7
:10E22000AB6A20466FEA03436FEA1343AB6238BD23
:10E2300000ED00E0D5690100F26901000A6A010001
:10E24000296A0100586A01007B6A0100A56A010081
:10E25000C46A010010B51E4C1E48452107F03DF967
:10E26000A2696369580603D545211B4807F035F9B3
:10E270006369D90708D54521184807F02EF9636965
:10E2800043F0FF03636110BD63699A0702D545211E
:10E290001348F2E763695B0702D545211148ECE7B3
:10E2A0006369180702D545210F48E6E76369D90677
:10E2B00002D545210D48E0E763699A0602D545215C
:10E2C0000B48DAE763691B06D9D545210948D4E72D
:10E2D000D0ED00E0F46A0100126B0100276B010031
:10E2E000426B0100656B0100856B0100A76B0100AB
:10E2F000C16B0100E06B01002DE9F0417A4B0D4646
:10E300005C6800268AB0C4F3080786F31188BFF35F
:10E310006F8F02F07F43B3F17F4F1ED112F00103E4
:10E320003AD012F0400302F0080840F0D6805207BD
:10E3300054BF05461E462A686C4B58BF012613443D
:10E34000012B98BF2A6C4521694807F0C6F8B8F13F
:10E35000000F1ED0EFF389855DB940F2F2326549B6
:10E36000654806F0DBFF40F2F231624807F0A2F8A0
:10E3700000250023FA1E98468DF807301346092B16
:10E3800000F29980DFE803F00A888C6A90979797EB
:10E390009794EFF38885DFE71E46DEE7452157486F
:10E3A00007F09BF8504B8DF80780DC6A14F00204EC
:10E3B00004D04521524807F090F877E0DA6A002A45
:10E3C0001DDA45214F4807F088F89DF807309BB9C2
:10E3D0002022294602A807F057F9099B002E77D082
:10E3E000C3F3080222B96FEA53236FEA4323099368
:10E3F000204602A9FFF7CCFC0AB0BDE8F081DB6A39
:10E400005B0040D54521404807F067F8AB6933F819
:10E41000022C4DF602739A420CD003F1604303F6CE
:10E4200026631B786BB101200DF10701FFF7F6FDA4
:10E430000446CAE745212A68344807F04EF82C689C
:10E44000C3E7334B1B782BB101200DF10701FFF718
:10E4500051FEEDE72F4B1B889BB213B1FFF7A4FED3
:10E46000E6E72D4B5B6913B1FFF7F4FEADE72149F9
:10E4700040F2C322204806F051FF40F2C3211D485C
:10E4800007F018F8A1E71B4940F2C7221A4806F026
:10E4900045FF40F2C721F2E700200DF10701C5E773
:10E4A00000200DF10701D2E7FFF7D4FE00248CE72E
:10E4B00045211A487FE71A4914F4F87F194A1A4887
:10E4C00008BF0A46A7F11003452107F006F8EDE75B
:10E4D00023F4FF7323F0010389E7B8F1000F7FF401
:10E4E0003BAF0546012637E700ED00E0A6ED05014C
:10E4F000266C0100F5680100DE6201004A6C010033
:10E50000666C01008C6C01009F6C0100C36C010003
:10E5100029ED00E02AED00E0D0ED00E0E46C010020
:10E52000F86B01000D6C01000D6D0100044B5A6980
:10E5300042F010025A615A6942F480625A6170478F
:10E5400000ED00E0EFF30880EFF3098101B57246BA
:10E55000FFF7D2FE01BD00BF002320210348C218EF
:10E560000133412B82F80013F9D1704700E100E03C
:10E57000002080F31488BFF36F8F002080F30A8897
:10E5800080F30B8807F0C8FA00200E490860BFF33B
:10E590004F8F0D4880F3088800F03CF8202080F36E
:10E5A00011880A484FF40061401880F30988EFF39E
:10E5B00014800221084380F31488BFF36F8FFFF7A4
:10E5C0005DFC000094ED00E070250020B0260020E6
:10E5D000BFF34F8F0549064BCA6802F4E06213434C
:10E5E000CB60BFF34F8F00BFFDE700BF00ED00E041
:10E5F0000400FA0500231846054A1168C1F30721F3
:10E600008B4200D17047936010610133F8E700BF7F
:10E6100090ED00E010B572B6002484F31388FFF784
:10E62000E9FF0E4A234611464FF0FF3403F1200064
:10E630000133102B42F82040F8D100234FF0FF3077
:10E6400003F160020133102B41F82200F8D162B6C9
:10E65000BFF34F8FBFF36F8F10BD00BF00E100E02D
:10E66000064B9B68834207D1EFF3058323B1044A2D
:10E67000536843F08053536003F03ABD580A0020BA
:10E6800000ED00E082680D4B9A60036883F3888890
:10E69000436883F38988027B02F00101EFF39483DE
:10E6A00023F00303920748BF43F0020309B143F08C
:10E6B000010383F39488BFF36F8F704700ED02E08E
:10E6C000084AD36848B123F400531B041B0C43F0E1
:10E6D000BF6343F40033D36070479BB243F40053ED
:10E6E000F5E700BF00ED00E0084AD36840B19BB2F7
:10E6F00043F4804343F0BF6343F40033D360704777
:10E7000023F480431B041B0CF4E700BF00ED00E082
:10E71000084AD36840B19BB243F0080343F0BF639B
:10E7200043F40033D360704723F008031B041B0C31
:10E73000F4E700BF00ED00E0034AD2F88C3043F468
:10E740004063C2F88C30704700ED00E0084B1A6857
:10E7500018B142F001021A60704722F001021A60FB
:10E760001A6811B142F00202F5E722F00202F2E764
:10E77000D0ED00E01FB5094C094A234601210948A4
:10E7800000F01AF900230393074B0121E41A01A8B2
:10E790000193029400F02CF904B010BD0000012098
:10E7A00000000020186001006801002010B50B680F
:10E7B0000C7A23F01F0204F01F031A43CB6864098C
:10E7C00023F01F03044943EA440343F00103886034
:10E7D000CA600B6110BD00BF90ED00E030B54B6822
:10E7E0000C6885B00A898D7A0094013B24F01F04DF
:10E7F000234402F01F0242EA451223F01F030F28B0
:10E8000004468DF80820039309D90246452106489D
:10E8100006F063FE6FF01504204605B030BD694672
:10E82000FFF7C4FFF8E700BF296D01002DE9F04FA5
:10E830008946144606464FF00008524D85B0C8453B
:10E8400023DA7768002F42D01F2F17D9FB0615D186
:10E85000D6F800A01AF01F0F10D1504606F0C3FEE4
:10E86000834607EB0A00013806F0BDFE834510D051
:10E870006FF0150B5A464521434802E042464521B8
:10E88000424806F02AFE6FF01504204605B0BDE8A8
:10E89000F08F1BF1160FEDD0631E5B45EADBC5F868
:10E8A00008B0E968C5F808B02F6921F01F01D6E962
:10E8B00000321A44994247F01F0702F1FF3A1CD177
:10E8C000574508D131465FFA8BF0FFF787FF08F113
:10E8D00001080C36B3E73146C5F808B0EB6822F002
:10E8E0001F0203F01F031A43EA60E0B2FFF776FF4E
:10E8F00010F1160FC7D0441CE9E7013B5745E0B2C1
:10E9000023F01F03C5F808B006D12A69314602F08A
:10E910001F0213432B61E9E7296901F01F010B4333
:10E920002B613146FFF75AFF10F1160FABD0C5F837
:10E9300008B0EA689DF80830013F62F304038DF8DF
:10E9400008302B699DF808205B0863F347128DF8A7
:10E950000820D6E900321344009323F01F033B4400
:10E96000441CA3EB0A0AE0B22AF01F030F2803930A
:10E9700003D902464521064883E76946FFF716FF9B
:10E98000B9E700BF90ED00E07C6D0100546D01001F
:10E99000296D01000522034B5A60BFF34F8FBFF36F
:10E9A0006F8F704790ED00E0BFF35F8F0022014B47
:10E9B0005A60704790ED00E010B50A4C2278FFF7DE
:10E9C00035FF207016300CD10749084840F211126B
:10E9D00006F0A4FCBDE8104040F21111024806F018
:10E9E00069BD10BDA0130020A46D0100DE6201000E
:10E9F0002DE9F74F2D4D8A4606464FF00008AB46ED
:10EA00002B4FD04502DB03B0BDE8F08FD6F8049061
:10EA1000B9F1000F44D031680846019106F0E3FDDA
:10EA20000199044609EB0100013806F0DCFD84423F
:10EA30004FF014021F4B13D06FF0150302FB08F8C0
:10EA40004BF8083040F221121B491C4806F066FCC6
:10EA500040F22111184803B0BDE8F04F06F02ABD7E
:10EA600014F1160F2C60EDD01978A142EADD02FBFB
:10EA700008B0BC60BC60FC6800F10801007B64F376
:10EA80000400087138690C79400860F347140C7170
:10EA9000F96821F01F016960396921F01F012961BE
:10EAA00008F1010814350C36ABE700BF88090020D7
:10EAB00090ED00E0A0130020A46D0100DE620100D3
:10EAC00070B51B4D2E68102E0DD94FF4A472194944
:10EAD000194806F023FC17484FF4A47106F0EAFC2D
:10EAE0004FF0FF3070BDFFF75FFF0020134C144A5A
:10EAF0002263864215D1134B1E70FFF74BFF23682C
:10EB0000C3F30723102B0AD00A490B484FF4D672DF
:10EB100006F004FC4FF4D671064806F0CBFC00204A
:10EB2000E0E7696801EB0011FFF740FE0130E0E724
:10EB300024600100A46D0100DE62010090ED00E0A0
:10EB4000AAFF4400A0130020014B1860704700BFCB
:10EB50002800002010B52A48FEF7B8FD044658B139
:10EB600045210246274806F0B8FC224645212648A2
:10EB700006F0B3FC204610BD06F0D9FC044618B1DF
:10EB8000024645212148EEE706F0DDFC044618B1B7
:10EB9000024645211E48E6E7012006F0D9FC04465E
:10EBA00018B1024645211B48DDE7012006F0C4FCF0
:10EBB00004460028D9D1072006F0A7FC044618B166
:10EBC000024645211448CEE71F2006F098FC044673
:10EBD00018B1024645211148C5E7072006F0A0FC00
:10EBE000044618B1024645210D48BCE7012006F055
:10EBF00092FC04460028BDD0024645210948B2E7F0
:10EC0000EA6D0100F06D0100716F01001E6E0100E0
:10EC10004B6E01007E6E0100B26E0100E46E0100D9
:10EC2000146F01004D6F01002DE9F0410E4C0746B5
:10EC3000051BC5F347130C255D4305F148000E463F
:10EC40002044402106F037FD011E08DB074B2C4411
:10EC5000C4E91036064B5B59BDE8F0411847384609
:10EC60003346BDE8F0411847AC09002019570100B0
:10EC70006060010038B5CCB2012C054608D90849BE
:10EC800008487E2206F04AFB7E21054806F012FC69
:10EC90000C212B6904FB0134A06C00F0070038BD87
:10ECA000A96F0100DE620100F8B5CCB2012C054667
:10ECB000164607690AD91849184840F2531206F057
:10ECC0002DFB40F25311144806F0F4FB4FF02003E3
:10ECD000EFF3118283F31288BFF36F8F0C2303FBD2
:10ECE0000471896C11F0C00101D08E4211D1012153
:10ECF000002003FB0473996482F31188BFF36F8FC4
:10ED000030B90C23696803FB04146368984700203A
:10ED1000F8BD4FF0FF30EFE7A96F0100DE620100A0
:10ED200070B50D4606490446411A4911402205486E
:10ED3000FFF7BAFF2B4601462046BDE87040184752
:10ED4000AC0900208C5B010070B500220121044653
:10ED50000520FFF769F80520FFF748F80F4801F094
:10ED600001F80F4B984215D101F01CF826690D49A6
:10ED7000304606F021FB00280BDB0125B564246931
:10ED8000084904F1200006F017FB002801DB0020F1
:10ED9000656570BD6FF00400FBE700BFDDED0000AE
:10EDA0000000AD0B7860010001460C2300224B43AC
:10EDB000084870B5C4184833D4E910561844226482
:10EDC00006F097FC2DB132462B46BDE87040024854
:10EDD000184770BDAC0900208C5B0100012808B504
:10EDE00006D0032808D0A0B90F4B9B6C5B0719D144
:10EDF000BDE80840FFF7D8BF0C4940F266220C4836
:10EE000006F08CFA40F26621BDE80840074806F09B
:10EE100051BB064940F26A22054806F07FFA40F2EB
:10EE20006A21F1E708BD00BFAC090020A96F01000D
:10EE3000DE62010008B54FF02003EFF3118183F388
:10EE40001288BFF36F8F124A136843F0020013F069
:10EE5000010310600CD04FF05022D2F80C34D2F8DD
:10EE60000C2413F0010303D00A4806F042FC0123EE
:10EE700081F31188BFF36F8F23B1BDE808400020F4
:10EE8000FFF792BF0120BDE8084000F0A9BF00BF16
:10EE9000040A0020F4090020074BD3E8EF2F22F0EA
:10EEA0000201C3E8E01F0028F7D1D30702D40120F4
:10EEB00000F0E6BF704700BF040A00201FB5002223
:10EEC0000123CDE902236B46084ACDF800D0CDF8E6
:10EED00004D006F033FC002805DB4FF48042002309
:10EEE000684602F0D5F905B05DF804FB375701001C
:10EEF0002DE9F843012205464649D1E8EF3FC1E834
:10EF0000E02F0028F9D19BB9434944484B60CB60BE
:10EF10008A60FDF745FE00280ADA4149414840F27F
:10EF2000262206F0FBF940F226213D4806F0C2FAFF
:10EF3000ADB36B1E012B59D8012D07D14FF05023D3
:10EF4000D3F81C3403F00303022B28D006F0A5FDF0
:10EF5000044618B9344B1B78002B54D14FF02003D2
:10EF6000EFF3118683F31288BFF36F8F01242F4FC5
:10EF7000DFF8BC80DFF8BC904FF05022D2F8183494
:10EF8000D2F81824D2030CD503F00303022B01D0CE
:10EF9000012D06D124B386F31188BFF36F8FBDE82E
:10EFA000F883C4B13046FEF7E9FE4FF05022D2F8A4
:10EFB0001835DBB2012BDFD139680029DCD0002104
:10EFC000396039680221C2F818152022C8F880215A
:10EFD000C9F80030D0E70021212003F053F8E4E71E
:10EFE0004FF050230222C3F80423D8E70C490D4800
:10EFF0004FF40E7206F092F9BDE8F8434FF40E712B
:10F00000074806F057BA4FF0502302220646C3F8CD
:10F010000823ACE7080A00209C090020CC09002046
:10F02000A96F0100DE620100B113002004510050FD
:10F0300000E100E00850005008B50848084B18608F
:10F0400006F005FD38B10748FFF77EFD0548FDF7DE
:10F05000AFFB002008BD6FF01200FBE7BC5B0100B6
:10F060000C0A002069F000000A2838B50446074D54
:10F0700004D1286883680D215B68984728688368F5
:10F08000E1B25B689847204638BD00BF0C0A0020FB
:10F0900010B50446002201210A20FEF7C5FE606873
:10F0A0002369094A00F1080100F0B6FF074B9842B6
:10F0B00007D007484521226806F00FFA6FF00F00CD
:10F0C00010BD0020FCE700BF15F100000000AD0BF3
:10F0D00004700100CA0708B5436809D4C1F34202AD
:10F0E000012A08D0022A0FD04521094806F0F5F977
:10F0F0006FF0150007E04FF0CC721B68C3F82425B1
:10F1000003690020596208BD4FF0C8621B68F5E72B
:10F11000297001000378012B08D0022B08D04BB9CD
:10F12000054B0B6201F1100002F07CB8034BF8E7CD
:10F13000034BF6E7034BF4E70000AD0B0100AE0B09
:10F140000200AE0B0100AD0B2DE9F04F1D464668E5
:10F150008FB0D0F81090338B0DF1240B05928046C0
:10F160000C46142200215846D9F828A0049306F032
:10F1700096FA8DF825504FF0FF324FF0FF33484696
:10F1800002F086F809F11003039300273D460022A0
:10F190000023039802F07CF8304600F0B1FFCDF870
:10F1A00018B0059B9F4201D3002427E0217A0B076A
:10F1B00000F1B580059B07F1010B9B450AD288073A
:10F1C00008D4237D81EA030202F0010203F0040364
:10F1D00013431DD07DB300236268049805EB020C35
:10F1E000844517D9D8F80030009001934521134683
:10F1F0004C482A4606F071F96FF01B04304600F0C7
:10F20000A7FF484602F00EF820460FB0BDE8F08F89
:10F210000123E1E7C90706D421680AEB050007933B
:10F2200006F032FA079B62681544ADB2002B39D064
:10F230005F460C34B5E7CA071DD5002523680C933B
:10F2400063680A93237A304603F0010213F0020F39
:10F250008DF8242006990CBF2022002200F0ACFF7C
:10F26000314B984224D00B3398420CBF6FF00F04FF
:10F270006FF00404C2E7216801F06043B3F1005F5E
:10F28000DBD06268738B934208D24521D8F80030F6
:10F29000264806F022F96FF01504AFE7504606F055
:10F2A000F3F9A588002DC8D0CDF830A00A95C9E79C
:10F2B0004FF480420023039801F0EAFF70B145212A
:10F2C0003A461B4806F009F9304600F041FFD6E9FE
:10F2D000020101F061FA6FF004048FE7D9F82020F1
:10F2E000114B9A4205D03B464521124806F0F5F8ED
:10F2F000F1E7237ADB0701D4002599E70C9B9A45B7
:10F30000FAD1274606E0A91A8DB2F8681AFA81F1F7
:10F3100006F0BAF97A680C3F9542F4D2ECE76FF048
:10F3200085046BE7407001000000AD0BD570010053
:10F33000407101006F710100F0B54B79012B2AD0AB
:10F34000032B25D110268B79032B21D1CC792CB11D
:10F35000012C1DD143685B689B0719D00A7912B153
:10F36000022A15D10E220B684568B3F5164F2D6899
:10F3700065D02DD8B3F5165F64D016D8B3F5966F67
:10F3800062D00AD8B3F5967F61D0B3F5167F61D00D
:10F390006FF0850052E00026D5E7B3F5166F5CD01C
:10F3A000B3F5965FF4D1374B3CE0B3F5E14F57D05E
:10F3B00007D8B3F5615F55D0B3F5964FE8D1324B1E
:10F3C00030E047F61227BB42E2D14FF4000329E0B8
:10F3D000B3F5613F48D013D8B3F5963F47D009D86D
:10F3E0004DF6C027BB4244D0B3F5614FD0D14FF4A6
:10F3F0006B0317E0B3F5E13FCAD14FF0EB7311E0B7
:10F40000B3F5612F38D008D8204FBB4237D0B3F5C1
:10F41000E12FBDD14FF0E86304E01D4FBB42B7D1EF
:10F420004FF08053C5F82435036934432243043335
:10F4300003C9C5F86C2583E803000020F0BD4FF434
:10F440001D03EFE7134BEDE74FF49E23EAE74FF47C
:10F45000A033E7E74FF41C33E4E74FF41D23E1E763
:10F460000D4BDFE70D4BDDE74FF06C73DAE70C4B2C
:10F47000D8E74FF46503D5E74FF07063D2E74FF05C
:10F480008063CFE700B0130000A04E0090D00300CF
:10F4900040420F000050270000C0750000F03A0005
:10F4A00000903A01036810B55A090CBF4FF0FF32C3
:10F4B000002203F01F0322FA03F3DB0704460AD4F9
:10F4C0000E490F484FF4057205F028FF4FF40571FF
:10F4D0000A4805F0EFFF236803F01F025B09226072
:10F4E0000AD00649064840F2192205F017FF40F2FB
:10F4F0001921024805F0DEFF024810BDA771010086
:10F50000DE62010000258450F8B505460F46066905
:10F5100006F0C3FA10B92C4B1B7883B94FF02003C7
:10F52000EFF3118483F31288BFF36F8F284606F040
:10F5300068F928BB84F31188BFF36F8FEEE764246A
:10F54000284606F05EF970B9012006F041FA013C48
:10F55000F6D10021212002F095FDF0E784F3118817
:10F56000BFF36F8FF5E74FF02003EFF3118483F3C0
:10F570001288BFF36F8F284606F043F90028EDD0BC
:10F58000012206F8107F69680B68C3F84465C3F868
:10F5900048250022C3F82021D3F82001C3F85821C0
:10F5A000D3F858214A68D20641BF0822C3F8002583
:10F5B0004FF48002C3F8042301229A6084F3118877
:10F5C000BFF36F8FF8BD00BFB1130020F7B50F4632
:10F5D000164640B918491948242205F09FFE2421F7
:10F5E000154805F067FF47B913491448252205F06F
:10F5F00095FE2521104805F05DFF4FF4806500243D
:10F600006FF01500A64201D803B0F0BD331BB3F56F
:10F61000806F38BF1D46002001AB2A46391903F020
:10F6200059F9019BAB4203D10028EDD12C44E9E705
:10F630006FF01500E8E700BFF8710100DE6201001D
:10F6400010B5064C06482146172205F067FE2046F5
:10F65000BDE81040172105F02DBF00BF3372010037
:10F66000DE620100194970B5044622F07F46086841
:10F67000C1E90023A6F50013101AB3F5400F4FF0AF
:10F6800000050AD20125124B19680A060B0A9219C5
:10F69000104943F10003C1E9002302F091FFA300E8
:10F6A00003F1502303F58033D3F84025B2420BD148
:10F6B0001DB94FF40002C3F840254FF48030064BCB
:10F6C00000FA04F4C3F8444370BD00BF8001002079
:10F6D000180A0020680100200050015001238340D7
:10F6E00010B5DC430D4AD2E8EF1F01EA040CC2E872
:10F6F000EECFBEF1000FF6D14FF4803202FA00F0E7
:10F7000002F15022C2F80803BFF35F8FBFF36F8F7F
:10F710000B4214BF0120002010BD00BF140A0020BE
:10F7200001230E4A8340D2E8EF1F1943C2E8EC1FC1
:10F73000BCF1000FF7D14FF48033094A8340C2F87F
:10F740000433084BD3E8AF3F23FA00F0C30742BFAE
:10F750004FF40012044BC3F800217047140A002034
:10F7600000500150100A002000E100E00D4B1B6822
:10F77000190A1806BFF35F8F0B4BD3F80435C01876
:10F7800041F10001B3F5801F0AD2084BD3E90023F1
:10F79000994208BF904203D210F1807041F10001FC
:10F7A000704700BF180A0020005001506801002077
:10F7B0002DE9F74F16461F460546FFF78FFF0090CD
:10F7C000FFF7D4FFB94208BFB0427BD200234FF00D
:10F7D0008072B6EB000867EB01094B4508BF424554
:10F7E0007DD3404B03EB0513D3E902239F4208BFAF
:10F7F000964251D04FF4803B26F07F4214464FEAA8
:10F80000850905F1500809F150294FEA880809F5E2
:10F8100080391FFA88F808F15028D9F84005324B92
:10F8200008F580380BFA05FBD3F804A5A0EB0A0015
:10F8300020F07F402AF07F410128C9F8401505D10A
:10F840000192132006F063F9274B019A0AF1020C8A
:10F85000A4EB0C0020F07F400021B0F5000F88BF22
:10F860006446C8F80010D8F8000024F07F40C3F8C0
:10F8700044B3C9F84005D3F80405824506D0201AE0
:10F88000023820F07F40B0F5000F19D8A41A24F0F8
:10F890007F44321947F10003124C290104EB051093
:10F8A000C0E902230C9A0D9B625000244360009B28
:10F8B00013B12846FFF734FF204603B0BDE8F08FB0
:10F8C0002046B1E70123094AAB40D2E8EF1F1943B4
:10F8D000C2E8E01F0028F8D132463B46DCE76FF073
:10F8E0001504E4E77001002000500150100A0020C8
:10F8F000334B2DE97343D3F804339A0709D5314BC1
:10F900001A6832B100221A602F4A1B68136801334B
:10F9100013604FF02003EFF3118283F31288BFF3DB
:10F920006F8F274BD3F80433DB030ED5274BD3E877
:10F93000EF1F21F00100C3E8E40F002CF7D1244BA6
:10F94000002936D11968002933D1002382F31188A8
:10F95000BFF36F8F53B3FFF709FF04464FF0200347
:10F96000EFF3118083F31288BFF36F8F194B0022DE
:10F97000D3E90289494508BF44451FD3D3E900169E
:10F980004FF0FF344FF0FF351A604FF48032C3E977
:10F9900002450B4BC3F8482380F31188BFF36F8FE8
:10F9A00021B142464B4600200096884702B0BDE890
:10F9B0007083002119601B680123C7E71146EBE73C
:10F9C0000050015004510150180A0020100A002074
:10F9D000405101507001002073B500244FF0FF30FA
:10F9E0004FF0FF31174D184BC5F80845C3E9020128
:10F9F0004FF4803302264FF40012C5F80433134B42
:10FA00000121C5F804631520C3F880212246FEF7C2
:10FA10000BFA1520FEF7EAF901230D4AC5F8046335
:10FA200013600C4A2B6013600B4B0C4A009320466A
:10FA300000230194FFF7BCFE3046FFF759FA204639
:10FA400002B070BD005001507001002000E100E0E4
:10FA500008500150140A002065F60000FFFF7F00E7
:10FA6000144B13B5B0F1FF3F08BF1846441E002CDD
:10FA70001DDD9C42A8BF1C46FFF778FE0E4B0F49C8
:10FA8000D3E90023801AB0F5000F28BF002401300D
:10FA9000044408480091844228BF044600201219FB
:10FAA000019043F10003FFF783FE02B010BD002474
:10FAB000E2E700BFFFFF7F008001002065F6000045
:10FAC00008B5FFF753FE024B1B68C01A08BD00BF04
:10FAD000800100200348452108B505F0FEFC002008
:10FAE000FEF776FD6F7201002DE9F0430025214CF1
:10FAF000214E54F8048CDFF8889085B0A84503D8CF
:10FB0000002005B0BDE8F083636A96E807001F682F
:10FB100001AB83E807000C221946384605F08DFD3D
:10FB200090B98FB1636A21691B681A6991420BD140
:10FB30009A69A169914207D8E169914204D9626941
:10FB40005B6932EA03030AD0276A67B10B4805F004
:10FB5000E5FB404080F311884FF0040002DFE368CA
:10FB600001351C44CAE7484605F0D8FB636A1F60AC
:10FB7000F5E700BF3CC40000AC5E010091720100DB
:10FB8000BA720100054B1868043B1B68092B03D1AE
:10FB9000431E584258417047002070473401FF000F
:10FBA0004A4A08B5136843F002031360484B1B68C8
:10FBB000092B01BF4FF050230022C3F81421C3F8D2
:10FBC0001821FFF7DFFF30B10123424A1360A2F68C
:10FBD0003822C2F878353E4B1B68092B07D13E4BC3
:10FBE0001B68012B1EBF01223C4BC3F87825FFF791
:10FBF000C9FF10B10E223A4B1A60354B1B68092B16
:10FC000004D10022374B1A6001225A600022D3002F
:10FC100003F57F03D3F80013013108D0D3F80013A4
:10FC20000132D3F80433B2F5807F0B60EFD12E4B55
:10FC3000DA69D1073BD52D4B1946D3F80024012AA8
:10FC4000FBD1C3F80425D1F80034012BFBD1264B9E
:10FC5000DA69D20708D5DA69244922F00102DA61AB
:10FC6000D1F80024012AFBD11A6A01320AD11A6A9A
:10FC700022F0FF0242F020021A621C4AD2F800343D
:10FC8000012BFBD10022194BC3F80425D3F8002423
:10FC9000012AFBD1BFF34F8F1549164BCA6802F4F6
:10FCA000E0621343CB60BFF34F8F00BFFDE71B6AD9
:10FCB0000133C0D00E4AD2F88C3043F44063C2F80E
:10FCC0008C300D4B0D4A1A6008BD00BFD0ED00E02E
:10FCD0003001FF00384A00503401FF00004000505E
:10FCE000E4AE03500C4700500080FF00009003502A
:10FCF00000ED00E00400FA05800000200090D00331
:10FD000008B570B101281BD04FF44F721349144845
:10FD100005F004FB11484FF44F7105F0CBFB0020B8
:10FD20000DE031B14FF05023D3F8183403F0030342
:10FD30000B704FF05023D3F81804C0F3004008BDF7
:10FD400031B14FF05023D3F80C3403F001030B70A2
:10FD50004FF05023D3F80C04EFE700BFED72010021
:10FD6000DE62010010B5044640B909490948B522D0
:10FD700005F0D4FAB521064805F09CFB064B1A792C
:10FD800022B9012205481C601A7110BD0448FCE725
:10FD900021730100DE6201001C0A00200000AD0B8F
:10FDA0000C00AD0B08B50B4B1B7943B90A490B4846
:10FDB000CE2205F0B3FACE21074805F07BFB0520E3
:10FDC000FEF724F820B9BDE808400520FEF70EB87C
:10FDD00008BD00BF1C0A002021730100DE62010083
:10FDE000224B13B51B79044653B9214921484FF4DE
:10FDF000857205F093FA4FF485711D4805F05AFBA2
:10FE00006CB1012C28D04FF49E721949194805F0A5
:10FE100085FA4FF49E71164805F04CFB18E0204619
:10FE20000DF10701FFF76CFF4FF0502390B19DF8E3
:10FE30000720022A0ED1C3F8182500220E4B1A60A3
:10FE40001B6802224FF05023C3F8042301229A605A
:10FE500002B010BD0122EEE70022084B1A601B68B9
:10FE60004FF05023C3F804431C60F1E71C0A002044
:10FE700021730100DE620100045100500051005066
:10FE80002D4B13B51B79044653B92C492C4840F22D
:10FE9000431205F043FA40F24311284805F00AFBEB
:10FEA00074B1012C27D02549254840F25F1205F096
:10FEB00035FA40F25F11214805F0FCFA02B010BD9E
:10FEC0004FF050230222C3F808230122C3F8044153
:10FED00042F2107403F582731B681A4B1A600021FA
:10FEE0000846FFF70DFF0028E8D0012005F070FD5F
:10FEF000013CF4D1E2E74FF050230022C3F808435D
:10FF0000C3F8002103F580731B680F4B1C608DF84C
:10FF1000074042F2107401200DF10701FFF7F0FED7
:10FF20000028CBD09DF807000128C7D105F050FD6F
:10FF3000013CF0D1C2E700BF1C0A00202173010080
:10FF4000DE6201000C50005004500050164B07B503
:10FF50001A6852B1002018601B6801224FF050232C
:10FF6000C3F80823114B1B689847114B1A688AB1D4
:10FF700000200DF1070118601B68FFF7C1FE9DF816
:10FF800007104FF0502301294FF0020205D1C3F8AA
:10FF90001825996003B05DF804FBC3F80823034BF0
:10FFA00001201B689847F5E7005100501C0A00200B
:10FFB00004510050036810B55A090CBF4FF0FF32CE
:10FFC000002203F01F0322FA03F3DB0704460AD4DE
:10FFD0000E490F484FF4057205F0A0F94FF4057172
:10FFE0000A4805F067FA236803F01F025B092260E4
:10FFF0000AD00649064840F2192205F08FF940F26E
:020000040001F9
:100000001921024805F056FA024810BDA7710100F7
:10001000DE620100002584502DE9F3470646924632
:1000200099460C4651B9314931484FF4837205F075
:1000300075F94FF483712D4805F03CFAD4E900239B
:100040009A420AD129492A4840F2071205F066F976
:1000500040F20711254805F02DFA342796F8048060
:10006000244D07FB08F7E91991F82D30002B3BD1FF
:100070008B6081F8303081F82F30637BC1F80490B9
:1000800081F83230236845F807A001A8D6F800901F
:1000900040F20C6A0193FFF78DFF019B803340F81B
:1000A00023A0636801A80193FFF784FF019B8033BD
:1000B00040F823A0D4E90023C9F80825C9F80C3575
:1000C000A368C9F82435EB5923B1306840F30730F1
:1000D000FDF78CFE342303FB08550123064885F801
:1000E0002D3002B0BDE8F0870448FAE75E730100E6
:1000F000DE620100240A00200000AD0B0500AD0BFC
:10010000342270B50F4D0479064602FB045292F872
:100110002D20012A0AD00C490C484FF4B57205F085
:10012000FDF84FF4B571084805F0C4F906223368AC
:10013000C3F80025342303FB0454022384F82D3034
:1001400070BD00BF240A00205E730100DE62010062
:10015000342270B5144D0479064602FB045292F81D
:100160002D2052B91149124840F2751205F0D6F807
:1001700040F275110D4805F09DF93423002103FB71
:10018000045332680B489960C2F80803D2F80002A1
:1001900020F4BC50C2F80002C2F80015012283F816
:1001A0002F1083F82D2070BD240A00205E730100FB
:1001B000DE62010002029C012DE9F04703798046CE
:1001C0000D4617463BB94B68B3F5805F03D28B6889
:1001D000B3F5805F0AD3BC49BC4840F28A2205F0DF
:1001E0009DF840F28A21B84805F064F9342498F863
:1001F0000490B74E04FB09F43359FBB92B78022B5A
:100200000ED02B78032B19D140F29322AE49AF4880
:1002100005F084F840F29321AB4805F04BF90DE06E
:1002200040F29222A849A94805F078F840F29221BC
:10023000A54805F03FF93359002BE2D034230022C2
:1002400003FB0963D8F8004083F82E206B6853B194
:10025000EB6803F06043B3F1005F04D0DFF878820D
:100260004046BDE8F0874FF0340C0CFB096C994B0D
:10027000C4F808339CF82F3003F0FF0A33B1DCF8E0
:100280000830DFF85882C4F80433E9E717F0140F98
:100290000CBF01230023A8468CF82F300CF10C0E64
:1002A000B8E80F00AEE80F00D8F80030CCF82070A6
:1002B000CEF80030C7F300138CF830306B78C4F8F8
:1002C0008835C4F804A1D4F80431C4F824A1D4F8C2
:1002D0002431C4F860A1D4F86031C4F848A1D4F83E
:1002E000483117F0010318BF0123C4F8503517F047
:1002F000020318BF0123C4F840352B78032B00F20A
:10030000DF80DFE803F0AECA9302F9060AD56E4932
:100310006E484FF4E77205F001F84FF4E7716A4850
:1003200005F0C8F83A070AD56749684840F2CF1285
:1003300004F0F4FF40F2CF11634805F0BBF87B07EF
:100340000AD5614961484FF4E87204F0E7FF4FF4C1
:10035000E8715D4805F0AEF82A6902F06043B3F138
:10036000005F7FF47BAF4FF48073E968C4F800321C
:100370006B68C4F84415C4F848350023C4F85031FC
:10038000D4F8501101212162A160D4F85011002944
:10039000FBD0C4F85031D4F85031AB68C4F84425D0
:1003A000C4F8483534234FF4802203FB09639A6074
:1003B0000823DFF82C81380707D42A78032A04D0D1
:1003C0000122E2506B6803B96261342303FB09F335
:1003D000F218F358002B40F087800125D4F848210B
:1003E000D4F80411002940F09780003A18BF012288
:1003F000D4F82411002900F09580C4F82431D4F8F1
:100400002411D4F86001D4F8001210B111F4007F67
:1004100004D1256265610028E0D00022C90540F1C1
:100420008180C4F84831D4F84821D7E76B68EA687E
:10043000C4F84425C4F848352B6903F06042B2F192
:10044000005F7FF40BAFAA68C4F834354FF48453CF
:10045000C4F83825C4F800323423022203FB0963B0
:1004600012E06B68EA6817F0200FC4F84425C4F85E
:1004700048354FF034030BD04FF48072C4F800229B
:100480004FF4802203FB09639A60012323628FE704
:100490004FF40072C4F80022DFE76B68EA68C4F822
:1004A0003425C4F838354FF48053C4F8003234236F
:1004B000022203FB09639A6001232362002378E789
:1004C0000823DFF8208076E75E730100DE6201001A
:1004D000240A002002029C010A00AD0B0B00AD0BA8
:1004E0000000AD0B0400AD0B790744BF00239360FF
:1004F0007B0606D4342303FB09639A6842F00202A8
:100500009A60342303FB0966B36843F40073B36055
:10051000B368C4F80433A3E6C4F80431D4F8042162
:10052000012265E7002A3FF459AF3421002001FB86
:100530000962D4F8C434C4F8C43482F82F008BB1F3
:100540000F4A104913F0010F14BF9046884601323C
:1005500013F0020F18BF904613F0040F0A4B18BF98
:1005600098467DE67B063FF57BAE204609FB0161A0
:1005700005F030FA034B002808BF984670E600BF2C
:100580000000AE0B0100AD0B0200AE0BF0B5624CEB
:1005900087B0236853B96149614840F2CD2204F025
:1005A000BDFE40F2CD215D4804F084FF5D4BD3F8E1
:1005B00024211D46FAB10022C3F82421D3F82421B6
:1005C000D3F80421BAB9A268C3F808230222A260B2
:1005D000A268C3F80423D3F860211AB1D3F800321B
:1005E0009E0503D401224F4B1A625A61012384F8FD
:1005F0002E3007B0F0BDD5F80431002B54D00023C5
:10060000C5F80431D5F80431236A5D060AD494F89C
:100610002E303BB94049434805F0DCF980F0010039
:1006200084F82E00236A13F0040722D13E4E01AD58
:100630000FCE0FC5336894F830C02B60394BC3F828
:100640006071D3F86021C3F85C71D3F85C21BCF110
:10065000000F02D094F82E205AB10022C3F80022D5
:10066000A260324AC3F808234FF48062304BC3F8CB
:1006700080212C4AD2F8C4349807C2F8C4343CD53F
:1006800001238DF8003094F830300BB984F82F3006
:10069000236A5B0703D594F82E30002BA9D0D4E948
:1006A000003168469847A4E7C5F84831D5F8483185
:1006B000237B83B91C4F01AE0FCF0FC63B6833605D
:1006C00094F83030002BD4D1C5F80032A360174B1A
:1006D000C5F80833C8E74FF40073C5F8003240F29C
:1006E0000223A36003F1CE73C5F80833A368C5F8ED
:1006F00004330123AB602B627BE7590701D502234A
:10070000BFE7DA0701D50323BBE794F82E30002BAF
:10071000B7D00423B5E700BF240A00205E730100B0
:10072000DE62010000A00050300A002002029C019D
:1007300000E100E0036810B55A090CBF4FF0FF322A
:10074000002203F01F0322FA03F3DB0704460AD456
:100750000E490F484FF4057204F0E0FD4FF40571A7
:100760000A4804F0A7FE236803F01F025B09226019
:100770000AD00649064840F2192204F0CFFD40F2A3
:100780001921024804F096FE024810BDA77101002D
:10079000DE62010000258450F7B50C46064605F0E0
:1007A00049F9204605F046F901A840F20D65019689
:1007B000FFF7C0FF019B0127803340F8235001A8B9
:1007C0000194FFF7B7FF019B803340F823500420CA
:1007D00005F0FEF8092501A80194FFF7ABFF019A87
:1007E0000369D340DB0714D401A80196FFF7A2FFE9
:1007F000019B013D07FA03F3C360042005F0E8F80C
:10080000304605F017F9042005F0E2F815F0FF0571
:10081000E1D101A80194FFF78DFF0123019A9340D4
:10082000C360042005F0D4F8204605F003F9042045
:1008300005F0CEF801A80194FFF77CFF019A036947
:100840000348D34003F00103C01A03B0F0BD00BF5A
:100850000100AD0B0E4B70B553F82040013053F83A
:100860002060A64200D870BDD4E9003528469847DC
:1008700065B1EB6830B10028B8BF4042FF28A8BF7F
:10088000FF2018705A7842F001025A700834E8E7E5
:100890000861010070B5054610B90024204670BDFE
:1008A0000378002BF9D00F4A0F4C1646944208D11A
:1008B0000D4CB442F1D0204605F0C9F850B91834B7
:1008C000F7E7204605F0C3F810B12368AB42E5D046
:1008D0001834EBE72846216804F0A3FE0028EED187
:1008E000DCE700BF1C5C01008C5B0100F7B504462F
:1008F0000E464FF02003EFF3118783F31288BFF306
:100900006F8F01F0EFFB0022042C98BF1D4B0546B2
:1009100094BF53F824301C4B0092452122461B48BB
:1009200004F0DBFD3EB1F369C3F308031BB14521BD
:10093000174804F0D2FD35B1284605F0B4F8034657
:1009400008B1027802B9134B2A464521124804F037
:10095000C4FD31462046FFF7BDF8042C08D10F49ED
:100960000F488F2204F0DAFC8F210C4804F0A2FD1E
:1009700087F31188BFF36F8F284603B0BDE8F040BE
:10098000FDF76EBE206101009A730100B073010093
:10099000DD730100A87301000374010020740100DD
:1009A000DE6201000023012210B586B0CDE90423E8
:1009B0000F220193CDE9023218230B4A0B4C03FBA3
:1009C00000234FF4A0720A4904EBC01402FB00118B
:1009D00000932046074B00F091F9637B23F004035A
:1009E000637306B010BD00BF580A002088010020C4
:1009F00070250020ED0E0100012208B5094B0220F0
:100A00001A70FFF727FF01F0CDFE0320FFF722FF4A
:100A100000F0C8F904F068FC034A137B23F00103DB
:100A2000137308BDB1130020080200200248034AD6
:100A30000021121A04F033BE680100207015002056
:100A400080B5364BA6B003F5006787F3088883F3BB
:100A50000A880024E023324D324E85F82230EC77AC
:100A60002C766C76AC7685F82040EC766B6ADFF8F5
:100A7000C89043F4E0236B626B6A43F400236B621B
:100A8000AC63EB689BB243F0BF6343F40833EB60A5
:100A900085F82340FDF74AFDFDF75CF94FF0FF3381
:100AA000AB62EB62FEF70CF8FDF764FE40F2011357
:100AB000ADF8243006ABB360CDE91F4404F0C6FFA7
:100AC0002046FFF7C7FE0120FFF7C4FE01F0BAF988
:100AD000154B164D0593012315494FF48052CDE96E
:100AE000034328464B46CDE901440094F56100F0EC
:100AF00005F980466A7B284622F004026A7300F0FA
:100B000099FE2046FFF74EFF0A4B4A4641462846CB
:100B1000F36034757760FDF73FFA00BFB026002020
:100B200000ED00E0580A00208C740100080200204B
:100B30007015002088010020F90901002DE9F0411D
:100B4000144D154CA846154EAC4208D931461448F0
:100B50003C2204F0E3FB3C21304604F0ABFC44456E
:100B600002D30020BDE8F081D4E9041242EA010377
:100B700013F003030BD1E068A361834201D1203459
:100B8000E2E7A76901331760A2610A44F5E76FF055
:100B90001500E7E7140100201401002094740100FF
:100BA000DE6201002DE9F74304460D469046994662
:100BB00000F108064FF02003EFF3118783F312884A
:100BC000BFF36F8F304600F06DF940B91F492048E0
:100BD000812204F0A3FB81211C4804F06BFC304609
:100BE00000F07CF9A369C3B12B601B68A361E369C2
:100BF0000133E3610024304600F062F940B9134943
:100C00001348AC2204F08AFBAC21104804F052FCDB
:100C100087F31188BFF36F8F13E058EA090203D1FD
:100C20006FF00B042B60E6E7224639463046CDE9EB
:100C3000008900F067FF044618B9064B9B685B69A2
:100C40002B60204603B0BDE8F08300BF18630100AD
:100C5000DE620100580A00202DE9F04104460D46ED
:100C600000F108064FF02003EFF3118783F3128899
:100C7000BFF36F8F304600F015F940B91D491E488B
:100C8000812204F04BFB81211A4804F013FC30460A
:100C900000F024F9D4F81880B8F1000F0FD12046E5
:100CA00001F092F858B12A68C0F87880426100F0EB
:100CB000C1FD39463046BDE8F04100F0BDBB2B68B0
:100CC000A26930461A602B68A361E369013BE361C6
:100CD00000F0F6F840B907490748AC2204F01EFBC3
:100CE000AC21044804F0E6FB87F31188BFF36F8F53
:100CF000BDE8F08118630100DE6201002DE9F043D8
:100D000085B0DDF83C900446B9F10F0F0F4615464B
:100D100098462ED11F4B98452FD104F15803C4E9B2
:100D20001633109B00262373042363730E9BE81D68
:100D300002930D9B20F0070001930C9B3D18C4E922
:100D4000197000932A46434639462046C4E9066690
:100D5000A66084F80E90E673E666FDF701F90E4B87
:100D600066659B6803B11B6F2846236705B0BDE825
:100D7000F08309F110031E2BCFD940F20522074959
:100D8000074804F0CBFA40F20521044804F092FB36
:100D9000C3E700BFED0E0100580A0020B97401003E
:100DA000DE6201002DE9F047394F3A4D3E46DFF84B
:100DB000EC8086B0BD420AD94146374840F2D52280
:100DC00004F0ACFA40F2D521404604F073FBB54282
:100DD00005F130041DD300F065FB40F2E7384FF019
:100DE00000092C4C2D4DDFF8B0A0B4420AD9294699
:100DF00050464FF43D7204F091FA4FF43D7128468D
:100E000004F058FBB44221D306B0BDE8F04700F02F
:100E10007FBF54F8043C059354F8103C049354F8F5
:100E2000143C039354F8183C029354F81C3C01936F
:100E300054F8203C009354E90A2354E90C01FFF7CD
:100E40005DFF54F8303C5D652546B3E7636A5A1C84
:100E50000FD04FF400424046494623EAE373C2FBF9
:100E60000301494508BF4045276804D1384600F0D2
:100E700017FD3034B9E74FF47A720023FBF7DEFA3E
:100E800002460B4607F11800054901F02FFAF0E77A
:100E90001401002014010020DE620100B974010079
:100EA00025190100006838B1044B00F003001B7DD8
:100EB000C01A18BF0120704701207047580A00204F
:100EC000054903468A68087D19680243002091425B
:100ED00004BF186001207047580A0020024A117DA3
:100EE00093680B4303607047580A0020104C08B504
:100EF000A26892F90E20002A08DA0E490E4846220E
:100F000004F00CFA46210B4804F0D4FA4FF020020A
:100F1000EFF3118382F31288BFF36F8F01F0DCFAD5
:100F2000A061FCF739FB0028F0D1FCF719FFEDE7D1
:100F3000580A0020DC740100DE6201002DE9F34153
:100F4000044616461F46EFF3058343B162496348E2
:100F5000652204F0E3F965215F4804F0ABFA4FF035
:100F60002003EFF3118883F31288BFF36F8F5C487F
:100F7000FFF798FF40B95B495848812204F0CEF949
:100F80008121584804F096FA5548FFF7A7FFE36817
:100F9000554AD3B1A0689168884233D056EA070316
:100FA00032D14F48FFF78CFF40B94E494B48AC2235
:100FB00004F0B4F9AC214B4804F07CFA88F31188B2
:100FC000BFF36F8F6FF00F0019E0916891F90E1069
:100FD0000133E360936842482161A360FFF770FF2B
:100FE00040B940493D48AC2204F098F9AC213D4855
:100FF00004F060FA88F31188BFF36F8F002002B00D
:10100000BDE8F0812169E3E791F90E1090F90E3007
:101010006FF07E029942A8BF19469142B8BF1146AF
:101020008B423FDD00F094FD054622464146CDE966
:1010300000672B4800F066FD0028E0D04FF0200349
:10104000EFF3118683F31288BFF36F8F2448FFF705
:1010500029FF40B923492148812204F05FF9812109
:10106000204804F027FA1E48FFF738FF236821695B
:101070009C420AD04BB193F90E309942A8BF194651
:101080006FF07E039942B8BF1946A06890F90E3000
:10109000994209D16DB13146114800F0CDF96FF098
:1010A0000A00ACE70025C0E700F052FD0028F2D1AD
:1010B000F0E70B48FFF704FF40B90A490748AC22A4
:1010C00004F02CF9AC21074804F0F4F986F31188F8
:1010D000BFF36F8FE3E700BFFD740100DE62010024
:1010E000800A002018630100580A002038B5044621
:1010F000EFF3058343B145494548C72204F00EF993
:10110000C721424804F0D6F9A368002B78D0414D9E
:10111000AA68934277D1E36843B93C493C48DF224F
:1011200004F0FCF8DF21394804F0C4F9EFF305833B
:1011300043B139493648FD2204F0F0F8FD21364824
:1011400004F0B8F9AB68DB7B012B08D13249304899
:10115000FE2204F0E3F8FE212F4804F0ABF9AA6860
:10116000D37B013BD373E368012B05D9013BE360DB
:1011700000F0CEFD002038BD4FF02003EFF31185C5
:1011800083F31288BFF36F8F2448FFF78BFE40B9BB
:1011900023491F48812204F0C1F88121204804F02E
:1011A00089F91E48FFF79AFEA068216990F90E3070
:1011B000994201D000F0CCFC204600F005FEA06072
:1011C00058B190F90E2022610022826700F032FBB4
:1011D0002946124800F030F9CAE7E0600F48FFF7EF
:1011E0006FFE40B90E490A48AC2204F097F8AC21D2
:1011F0000B4804F05FF985F31188BFF36F8FB7E7F1
:101200006FF01500B7E74FF0FF30B4E7FD74010051
:10121000DE620100580A00201F750100800A0020CC
:101220001863010038B504464FF02003EFF3118531
:1012300083F31288BFF36F8F1248FFF733FE40B974
:1012400011491248812204F069F881210E4804F006
:1012500031F90C48FFF742FE204600F0B5FD48B1D9
:101260000022826700F0E6FA2946BDE838400548CA
:1012700000F0E2B8D4E902329A4218BF0133A36009
:10128000F2E700BF840A002018630100DE6201005B
:10129000F7B5044616461F46EFF305835BB156EAE1
:1012A000070308D02B492C48792204F037F879211C
:1012B000284804F0FFF84FF02003EFF3118583F383
:1012C0001288BFF36F8F2548FFF7ECFD40B9244922
:1012D0002148812204F022F88121214804F0EAF813
:1012E0001E48FFF7FBFDA368ABB1013B1B48A360A1
:1012F000FFF7E6FD40B91A491748AC2204F00EF892
:10130000AC21174804F0D6F885F31188BFF36F8F2E
:10131000002003B0F0BD56EA070313D10F48FFF7D2
:10132000CFFD40B90E490C48AC2203F0F7FFAC21C9
:101330000B4804F0BFF885F31188BFF36F8F6FF08F
:101340000F00E6E722462946CDE90067034800F092
:10135000D9FBDEE74A750100DE620100840A002045
:101360001863010010B5084C23685BB1FEF7A8FBB9
:1013700003462068054A03440021BDE8104013617C
:1013800001F0E0B810BD00BF940A0020580A002008
:10139000F8B504460D464FF02003EFF3118683F3B2
:1013A0001288BFF36F8F1E48FFF77CFD40B91D49BF
:1013B0001D48812203F0B2FF81211A4804F07AF817
:1013C0001748FFF78BFD4FF40047002240F2E7304B
:1013D0000021164BE7FB04011A6100234FF47A72D7
:1013E000FBF72CF8002C124B16DC1860114B1D601B
:1013F000FFF7B8FF0A48FFF763FD40B909490A48FB
:10140000AC2203F08BFFAC21064804F053F886F3BE
:101410001188BFF36F8FF8BD0228B8BF0220E4E740
:101420008C0A002018630100DE620100580A0020C7
:10143000940A0020900A002010B503460C46C1B95A
:10144000EFF30582AAB9144AD1699268914210D08B
:10145000FFF736FD40B911491148C32203F05EFF82
:10146000C3210E4804F026F8BDE810400020FCF728
:1014700021BD1846FFF724FD40B908490848AC22B1
:1014800003F04CFFAC21054804F014F884F31188F4
:10149000BFF36F8F10BD00BF580A00201863010012
:1014A000DE62010038B54FF02003EFF3118583F3BE
:1014B0001288BFF36F8F2048FFF7F4FC40B91F4933
:1014C0001F48812203F02AFF81211C4803F0F2FF0C
:1014D0001948FFF703FDEFF3058343B11949184895
:1014E000FD2203F01BFFFD21164803F0E3FF164C1D
:1014F000A268D27B012A08D112491148FE2203F0CA
:101500000DFFFE210F4803F0D5FFA268D37B013BFE
:10151000D3730948FFF7D4FC40B908490848AC2206
:1015200003F0FCFEAC21054803F0C4FF85F31188ED
:10153000BFF36F8F38BD00BF8C0A00201863010015
:10154000DE6201001F750100580A00200B4B10B528
:1015500099420C460AD10A490A4840F2B53203F0D2
:10156000DDFE40F2B531064803F0A4FFD4E90032B5
:1015700013605A600023C4E9003310BD88010020C5
:101580006A750100DE620100836810B5044653B934
:101590000A490B4840F2532203F0C0FE40F25321A7
:1015A000064803F087FF2146A068FFF7CFFF637B63
:1015B00023F0020363730023A36010BD6A7501006A
:1015C000DE62010038B50246124804F092FA124D6C
:1015D000044600B9EC68AAB9AB6843B90F49104892
:1015E000812203F09BFE81210C4803F063FFAB686E
:1015F0005A7BD20606D1A26922B9DA897F2A01D99B
:10160000EB6138BDAB68A34201D0FFF7ABFEEC61E4
:10161000F7E700BF780A0020580A00206A75010029
:10162000DE62010070B590F90D200446002A437B6C
:1016300006DA03F07F03014643731F48FFF786FF76
:10164000637B63F07F0363731C4B9C4208D11C498E
:101650001C48B12203F062FEB121194803F02AFFB1
:10166000194A114651F8203F556A8B4208BF0023A2
:10167000002B38BF0023CBB194F90E6093F90E0014
:1016800086420FD0801B00280CDD5968C4E9003168
:101690000C605C609068031B58425841BDE8704084
:1016A000FFF790BFAB4201D01B68E4E7C4E9001527
:1016B0002C605462EEE700BF780A00208801002009
:1016C0006A750100DE620100580A002070B5044608
:1016D0004FF02003EFF3118583F31288BFF36F8F70
:1016E0002548FFF7DFFB40B924492548812203F054
:1016F00015FE8121214803F0DDFE1F48FFF7EEFBB8
:10170000204B214A986811688842194613D1FFF787
:1017100029FE1948FFF7D4FB40B918491848AC22F4
:1017200003F0FCFDAC21154803F0C4FE85F31188DD
:10173000BFF36F8F70BD00261660144A1268BAB1ED
:10174000C2897F2A14D8427BD20611D1104A90F95F
:101750000E60126896420BDB0E4A904208D01A695E
:10176000A24202DCFFF75EFFD1E7121B1A61D0E74D
:1017700000230B61CDE700BF8C0A00201863010035
:10178000DE620100580A0020880A0020940A002026
:10179000900A00208801002070B590F90D200446C1
:1017A000002A437B3DDBDA063BD18569002D38D129
:1017B00063F07F0343731B4B984208D11A491B48BF
:1017C000B12203F0ABFDB121174803F073FE1849B5
:1017D0000B4653F8200F984218BF0546002D1A46B5
:1017E0002B4638BF00234D6AB3B194F90E6093F9CC
:1017F0000E0086420CD0801B002809DD5A68C4E91F
:10180000003214605C600020BDE87040FFF7DABE73
:10181000AB4201D01B68E7E7C4E900252C604C62AD
:10182000F1E770BD880100206A750100DE620100E9
:10183000580A002038B504464FF02003EFF3118515
:1018400083F31288BFF36F8F1248FFF72BFB40B969
:1018500011491248812203F061FD81210E4803F0F5
:1018600029FE0C48FFF73AFB2046FFF795FF094891
:10187000FFF726FB40B908490848AC2203F04EFDAB
:10188000AC21054803F016FE85F31188BFF36F8F76
:1018900038BD00BF8C0A002018630100DE62010021
:1018A00038B504464FF02003EFF3118583F3128817
:1018B000BFF36F8F1848FFF7F5FA40B9174918487A
:1018C000812203F02BFD8121144803F0F3FD12481F
:1018D000FFF704FB637B5A0711D40F48FFF7F0FAB8
:1018E00040B90E490E48AC2203F018FDAC210B485C
:1018F00003F0E0FD85F31188BFF36F8F38BD23F04F
:10190000040320466373FFF747FF2946BDE83840CC
:101910000148FFF791BD00BF8C0A00201863010049
:10192000DE62010070B504464FF02003EFF311862C
:1019300083F31288BFF36F8F1B48FFF7B3FA40B9E8
:101940001A491B48812203F0E9FC8121174803F062
:10195000B1FD1548FFF7C2FA14F80B3C13F0280F3D
:1019600010D154F8103CA4F1180513B12846FFF724
:101970000BFE14F80B3C284623F0140304F80B3C30
:10198000FFF70AFF0848FFF79BFA40B907490848E4
:10199000AC2203F0C3FCAC21044803F08BFD86F3BA
:1019A0001188BFF36F8F70BD8C0A0020186301008F
:1019B000DE62010010B590F90D200446002A437B39
:1019C00006DA03F07F03014643730648FFF7BEFDC6
:1019D000054B9868031B58425841BDE81040FFF77B
:1019E000F1BD00BF780A0020580A002038B504462F
:1019F0000D46FFF7DFFF637B43F00203637315B30C
:101A0000174BA5609C4208D116491748B12203F034
:101A100085FCB121134803F04DFD2B689D4208BFA2
:101A20000023002B38BF00239BB194F90E1093F9CB
:101A30000E20914208D0521A002A05DD5A68C4E9E6
:101A4000003214605C6038BD6A68934201D01B6844
:101A5000EAE76B68C4E900531C606C60F3E700BF01
:101A6000880100206A750100DE6201002DE9F04165
:101A700004460D4616461F464FF02003EFF311882B
:101A800083F31288BFF36F8F1A48FFF70BFA40B940
:101A900019491A48812203F041FC8121164803F0BC
:101AA00009FD1448FFF71AFA20462946FFF79EFF62
:101AB0001048FFF705FA40B90F491048AC2203F06F
:101AC0002DFCAC210C4803F0F5FC88F31188BFF322
